:100000000C946C000C9489000C9489000C94890069
:100010000C9489000C9489000C9489000C9489003C
:100020000C9489000C9489000C9489000C9489002C
:100030000C9489000C9489000C9489000C9489001C
:100040000C94E8020C9489000C9489000C948900AB
:100050000C9489000C9489000C9489000C948900FC
:100060000C9489000C948900EF03038002CF0300F5
:10007000C130ED0464031281E803850078CB0539B3
:100080002C003402F70120EA020000C00123C10164
:1000900010C5023E28C701863601483701003A01E3
:1000A00055B1020018B603088227F20100260101AB
:1000B000E00F0F312B0C0E084EF1370710030E091D
:1000C00000E10F000E1403110731C148080F0C3175
:1000D000360F11802980000011241FBECFEFD8E019
:1000E000DEBFCDBF11E0A0E0B1E0E2E2FAE002C085
:1000F00005900D92A830B107D9F721E0A8E0B1E052
:1001000001C01D92AB32B207E1F70E94ED040C94DE
:100110000F050C940000579A559A569A209A2898E1
:100120000895F0E0E0E08E179F0771F06E177F07EB
:1001300059F0309721F4411107C05F9806C0E130B3
:10014000F105D9F72223C9F35F9A5D9A5D9831963C
:10015000E830F10541F75E9A5E98089587B1837F94
:1001600087B988B18C6088B980916800826080937B
:10017000680080916C008C6080936C00109212017A
:1001800086B18C70809316018091160188708093DF
:1001900014018091160184708093110180911101E6
:1001A00081110DC080911401811109C010921301B9
:1001B000809115018093130180911301089580911E
:1001C0001101811108C080911401882321F081E080
:1001D00080931301EDCF80911101882331F080913C
:1001E0001401811102C082E0F3CF83E0F1CFECE68D
:1001F000F0E08081806180830895ECE6F0E080810A
:100200008F7E80830895E1E8F0E085E0808380813F
:1002100088608083EFE6F0E080818260808380E404
:1002200098E39093890080938800E1EBF0E080816F
:10023000836080838BE38093B30008958FE590E023
:100240009093C5008093C40088E98093C10086E044
:100250008093C200529A08958091C00087FFFCCF1E
:100260008091C60008959091C00095FFFCCF8093C7
:10027000C6000895EF92FF920F931F93CF93DF93E1
:10028000CDB7DEB728970FB6F894DEBF0FBECDBF4F
:1002900088E0E0E0F1E0DE01119601900D928A9590
:1002A000E1F75A9A8E010F5F1F4F7E0189E0E80E39
:1002B000F11CF80181918F010E9433010E151F0579
:1002C000C1F78091C00086FFFCCF5A9828960FB6E0
:1002D000F894DEBF0FBECDBFDF91CF911F910F917C
:1002E000FF90EF90089591E0403308F090E021E016
:1002F000603A08F020E0920F21E0803208F020E020
:10030000920F81E0923008F480E0089588E08093B5
:1003100017013B988BB190911701892B8BB92FEF67
:100320008FE796E1215080409040E1F700C0000047
:10033000089580911801909119010895282FFB01CB
:10034000460F571F90E0E417F50721F481E0921360
:1003500080E008958191980FF6CF78940895FC017C
:1003600030E020E099B198709E171F0639F0A9017E
:100370004F5F5F4F2617370738F09A0181E0261745
:10038000370708F080E0089582E08A95F1F700C011
:100390009A01E8CF9FB740910C0150910D016091F7
:1003A0000E0170910F0186B5A89B06C08F3F21F00A
:1003B0004F5F5F4F6F4F7F4F9FBF2227342F452FD7
:1003C000562F280F311D411D511DA9E0B0E00E949C
:1003D000F50408954F925F926F927F928F929F9251
:1003E000AF92BF92CF92DF92EF92FF920F931F9343
:1003F000CF93DF93CDB7DEB7C954D1400FB6F89491
:10040000DEBF0FBECDBFCE0101967C0184EAD701CD
:100410001D928A95E9F76E01B5EACB0ED11C80EAF0
:10042000F60111928A95E9F78E010B5B1E4F85E06C
:10043000D8011D928A95E9F7F89453985B9ABFEF1B
:10044000EFE3F2E0B150E040F040E1F700C000001F
:10045000539A5B9886E69EE00197F1F70000539867
:100460005B9A91E39A95F1F7000068EE73E090E0F3
:1004700080E00E94AF01811119C07894C75BDE4F04
:100480000FB6F894DEBF0FBECDBFDF91CF911F91A5
:100490000F91FF90EF90DF90CF90BF90AF909F9023
:1004A0008F907F906F905F904F90089568EE73E00B
:1004B00081E090E00E94AF01470156018823E9F2F4
:1004C00068EE73E090E080E00E94AF018823A9F21B
:1004D0000E94CA01D4016D937D938D939D934D012C
:1004E00068EE73E081E090E00E94AF01882329F27A
:1004F0000E94CA01F50161937193819391935F0109
:10050000E017F107E9F668EE73E090E080E00E9402
:10051000AF01882309F4B1CF0E94CA01CF55DF4F44
:10052000688379838A839B83C15AD040789490E012
:1005300080E041E050E0D6018D909D90AD90BD905F
:100540006D01F70141905190619071907F019C0184
:100550002F5F3F4FF401E419F509D7016D917C91AC
:1005600068197909E617F707B0F463E09595879560
:100570006A95E1F7F801E80FF91F88279927821B90
:10058000930B87709927BA0101C0660F8A95EAF725
:100590008081862B8083C9012832310561F644E0D1
:1005A00050E0B801F80184810E949E01882371F017
:1005B000D8012C9111968C91082E000C990B922B3E
:1005C000909319018093180181E058CF80E056CFB5
:1005D0001F920F920FB60F9211242F933F938F9378
:1005E0009F93AF93BF938091080190910901A091CF
:1005F0000A01B0910B01309110012AE2230F2D372F
:1006000058F50296A11DB11D209310018093080199
:1006100090930901A0930A01B0930B0180910C0102
:1006200090910D01A0910E01B0910F010196A11DB5
:10063000B11D80930C0190930D01A0930E01B09316
:100640000F01BF91AF919F918F913F912F910F908B
:100650000FBE0F901F9018952DEA230F0396A11D32
:10066000B11DD2CFECE7F0E080818066808380818D
:100670008F778083EAE7F0E08081876080838081E4
:1006800080688083089590917C00907F90937C0097
:1006900090917C008F70892B80937C0080917A00F0
:1006A000806480937A0080917A0086FDFCCF8091EF
:1006B0007900089529988EBD0DB407FEFDCF299AC3
:1006C00008959EBD0DB407FEFDCF8EBD0DB407FE8F
:1006D000FDCF0895F89495B1997F95B98EBD0DB46D
:1006E00007FEFDCF299A90E080E050E0841795073F
:1006F0001CF02A9A78940895FB01E80FF91FE49101
:10070000EEBD0DB407FEFDCF0196F0CFF89495B184
:10071000997F95B98EBD0DB407FEFDCF85B186607A
:1007200085B9789408950F931F93CF93DF9380EF4B
:1007300090E09093200180931F0180E491E09093DA
:1007400025018093240110921D0110922201109224
:10075000210110921B0110921A0181E0809328015F
:1007600080931C012FEF3FEF309327012093260148
:1007700030932A01209329018093230110921E01B6
:10078000229A2A9A219A299A259A239A24988CB5F2
:1007900080658CBD81E00E9486032FEF8FE593E09A
:1007A000215080409040E1F700C00000C8E6D0E052
:1007B0009E012F5F3F4FFE018491811111C080EF98
:1007C00090E09093200180931F0180E491E090934A
:1007D000250180932401DF91CF911F910F910895FE
:1007E0002296F9011491012F0F77402FBE010E942C
:1007F0006A03C00FD11D17FFDBCFFFEF2FE583E0AA
:10080000F15020408040E1F700C00000D1CFF894C3
:100810002A9829988EBD0DB407FEFDCF299A1EBCDB
:100820008EB56150E0F72A9A78940895CF92DF92BE
:10083000EF92FF920F931F93CF93DF936C017B0195
:10084000415051098A01080F191FE9012197C60F6C
:10085000D71F8AE20E945A03C6010E946103C801A1
:100860000E9461038BE20E945A03C7010E94610348
:10087000CE010E9461038CE2DF91CF911F910F9115
:10088000FF90EF90DF90CF900C945A0341155105E3
:100890006105710549F408959EBD0DB407FEFDCFB5
:1008A0008EBD0DB407FEFDCF41505109610971099C
:1008B00098F70895AF92BF92CF92DF92EF92FF9296
:1008C0000F931F93CF93DF937A01E90158014115EC
:1008D000510509F460C0209709F45DC057FF08C0B6
:1008E0009A012F5F3F4F820F931FF194E194F1081B
:1008F00040911F0150912001841795070CF04BC0C7
:10090000D7FF08C09E012F5F3F4F620F731FD19525
:10091000C195D109209124013091250162177307F7
:10092000D4F56C01CE0CDF1CD6011197B7FD33C096
:100930008B010C0F1D1FF8013197F7FD2CC097FF9D
:1009400003C0760190E080E077FF03C0E80170E02B
:1009500060E0A417B5071CF07A01E81AF90AE2175B
:10096000F3071CF0E901C61BD70BF8942A989E01E7
:10097000A7010E941604EC9EA001ED9E500DFC9E66
:10098000500D1124052E000C660B770BC5010E943B
:1009900046042A9A7894DF91CF911F910F91FF908E
:1009A000EF90DF90CF90BF90AF9008951EBC8EB5B2
:1009B00008950F931F9320912401309125014091B8
:1009C0001F01509120018C0170E060E090E080E018
:1009D0000E945A041F910F91089578940E949303E6
:1009E00080EE93E00E94D904FBCF0E940005A59FF2
:1009F000900DB49F900DA49F800D911D112408951A
:100A0000A29FB001B39FC001A39F700D811D11244F
:100A1000911DB29F700D811D1124911D0895F894B0
:020A2000FFCF06
:080A22000103001E000365CD75
:00000001FF
