:100000000C946C000C9489000C9489000C94890069
:100010000C948B000C9470010C9489000C94890052
:100020000C9489000C9489000C9489000C94EF00C6
:100030000C9489000C9489000C9489000C9489001C
:100040000C94E1030C9489000C944C010C948900ED
:100050000C9489000C9489000C9489000C948900FC
:100060000C9489000C948900EF03038002CF0300F5
:10007000C130ED0464031281E803850078CB0539B3
:100080002C003402F70120EA020000C00123C10164
:1000900010C5023E28C701863601483701003A01E3
:1000A00055B1020018B603088227F20100260101AB
:1000B000E00F0F312B0C0E084EF1370710030E091D
:1000C00000E10F000E1403110731C148080F0C3175
:1000D000360F11802980000011241FBECFEFD8E019
:1000E000DEBFCDBF11E0A0E0B1E0EEEAFCE002C06F
:1000F00005900D92AA30B107D9F721E0AAE0B1E04E
:1001000001C01D92A534B207E1F70E94CE050C9400
:1001100055060C9400001F920F920FB60F921124F7
:100120008F939F9386B18C708093300180913001C2
:10013000887080932E0180913001847080932B0110
:1001400080912D0181110EC080912E01882321F014
:1001500081E080932F0116C080912B01882391F0BC
:1001600082E0F7CF80912D01813001F580912B0144
:10017000882311F083E0EDCF80912E01811102C020
:1001800010922F0190912F0180912D01981739F035
:1001900081E080932C0180912F0180932D019F910C
:1001A0008F910F900FBE0F901F90189580912D0189
:1001B000823049F480912B01882311F380912E0124
:1001C000882301F3D7CF80912E01882349F28091B3
:1001D0002B018111D7CF81E080932D01D3CF1F92C6
:1001E0000F920FB60F9211248F939F9380911A0153
:1001F0008F5F80931A0180910E018F5F80930E01B3
:1002000080910B018F5F80930B0180910B018230F5
:1002100029F481E080930C0180930B0180911A01F5
:10022000823029F481E080931C0110921A018091A0
:100230000E01823029F481E080930D0110920E01AD
:1002400080911101882329F01092110181E080939F
:10025000010180910F01882329F010920F0181E0A4
:10026000809300018091200190912101892B61F000
:10027000409810922101109220019F918F910F9030
:100280000FBE0F901F901895409A81E090E09093D8
:10029000210180932001F1CF1F920F920FB60F9290
:1002A00011248F93EF93FF938091C600E0911B017F
:1002B000F0E0EE5EFE4F808380911B018F5F8093A4
:1002C0001B0180911B01883019F481E080931D018E
:1002D000FF91EF918F910F900FBE0F901F90189587
:1002E0001F920F920FB60F9211248F939F9381E06C
:1002F00090E090931F0180931E019F918F910F902A
:100300000FBE0F901F901895579A559A569A209A9B
:1003100028980895F0E0E0E08E179F0771F06E17BF
:100320007F0759F0309721F4411107C05F9806C04C
:10033000E130F105D9F72223C9F35F9A5D9A5D9800
:100340003196E830F10541F75E9A5E98089587B1DD
:10035000837F87B988B18C6088B98091680082609A
:100360008093680080916C008C6080936C00109288
:100370002C0186B18C70809330018091300188709F
:1003800080932E0180913001847080932B018091A5
:100390002B0181110DC080912E01811109C0109295
:1003A0002D0180912F0180932D0180912D010895C1
:1003B00080912B01811108C080912E01882321F0AA
:1003C00081E080932D01EDCF80912B01882331F0C6
:1003D00080912E01811102C082E0F3CF83E0F1CF42
:1003E000ECE6F0E08081806180830895ECE6F0E047
:1003F00080818F7E80830895E1E8F0E085E080834E
:10040000808188608083EFE6F0E080818260808375
:1004100080E498E39093890080938800E1EBF0E01A
:100420008081836080838BE38093B30008958FE5A0
:1004300090E09093C5008093C40088E98093C10048
:1004400086E08093C200529A08958091C00087FF91
:10045000FCCF8091C60008959091C00095FFFCCF1D
:100460008093C6000895EF92FF920F931F93CF934E
:10047000DF93CDB7DEB728970FB6F894DEBF0FBE77
:10048000CDBF88E0E2E0F1E0DE01119601900D922F
:100490008A95E1F75A9A8E010F5F1F4F7E0189E01E
:1004A000E80EF11CF80181918F010E942C020E15BB
:1004B0001F05C1F78091C00086FFFCCF5A9828968F
:1004C0000FB6F894DEBF0FBECDBFDF91CF911F9165
:1004D0000F91FF90EF90089591E0403308F090E085
:1004E00021E0603A08F020E0920F21E0803208F02D
:1004F00020E0920F81E0923008F480E0089588E0D7
:10050000809331013B988BB190913101892B8BB94C
:100510002FEF8FE796E1215080409040E1F700C037
:100520000000089580913201909133010895282FA1
:10053000FB01460F571F90E0E417F50721F481E017
:10054000921380E008958191980FF6CF78940895E2
:10055000FC0130E020E099B198709E171F0639F039
:10056000A9014F5F5F4F2617370738F09A0181E0E6
:100570002617370708F080E0089582E08A95F1F7A2
:1005800000C09A01E8CF9FB7409126015091270102
:10059000609128017091290186B5A89B06C08F3F04
:1005A00021F04F5F5F4F6F4F7F4F9FBF2227342F48
:1005B000452F562F280F311D411D511DA9E0B0E0D8
:1005C0000E943B0608954F925F926F927F928F92A6
:1005D0009F92AF92BF92CF92DF92EF92FF920F93D2
:1005E0001F93CF93DF93CDB7DEB7C954D1400FB679
:1005F000F894DEBF0FBECDBFCE0101967C0184EA28
:10060000D7011D928A95E9F76E01B5EACB0ED11C90
:1006100080EAF60111928A95E9F78E010B5B1E4F75
:1006200085E0D8011D928A95E9F7F89453985B9A72
:10063000BFEFEFE3F2E0B150E040F040E1F700C07F
:100640000000539A5B9886E69EE00197F1F7000060
:1006500053985B9A91E39A95F1F7000068EE73E086
:1006600090E080E00E94A802811119C07894C75BD5
:10067000DE4F0FB6F894DEBF0FBECDBFDF91CF9136
:100680001F910F91FF90EF90DF90CF90BF90AF90B0
:100690009F908F907F906F905F904F90089568EE3D
:1006A00073E081E090E00E94A80247015601882390
:1006B000E9F268EE73E090E080E00E94A8028823EF
:1006C000A9F20E94C302D4016D937D938D939D93F3
:1006D0004D0168EE73E081E090E00E94A80288235B
:1006E00029F20E94C302F501619371938193919362
:1006F0005F01E017F107E9F668EE73E090E080E053
:100700000E94A802882309F4B1CF0E94C302CF55EA
:10071000DF4F688379838A839B83C15AD040789462
:1007200090E080E041E050E0D6018D909D90AD904A
:10073000BD906D01F70141905190619071907F01E2
:100740009C012F5F3F4FF401E419F509D7016D912A
:100750007C9168197909E617F707B0F463E095957D
:1007600087956A95E1F7F801E80FF91F882799271F
:10077000821B930B87709927BA0101C0660F8A9577
:10078000EAF78081862B8083C9012832310561F622
:1007900044E050E0B801F80184810E949702882368
:1007A00071F0D8012C9111968C91082E000C990BA8
:1007B000922B909333018093320181E058CF80E0F7
:1007C00056CF1F920F920FB60F9211242F933F9383
:1007D0008F939F93AF93BF938091220190912301B8
:1007E000A0912401B091250130912A012AE2230F22
:1007F0002D3758F50296A11DB11D20932A01809333
:10080000220190932301A0932401B09325018091AC
:10081000260190912701A0912801B091290101960C
:10082000A11DB11D8093260190932701A09328015B
:10083000B0932901BF91AF919F918F913F912F91DB
:100840000F900FBE0F901F9018952DEA230F03965F
:10085000A11DB11DD2CFECE7F0E0808180668083DE
:1008600080818F778083EAE7F0E0808187608083F2
:10087000808180688083089590917C00907F909320
:100880007C0090917C008F70892B80937C008091FC
:100890007A00806480937A0080917A0086FDFCCF94
:1008A00080917900089529988EBD0DB407FEFDCF83
:1008B000299A08959EBD0DB407FEFDCF8EBD0DB4DF
:1008C00007FEFDCF0895F89495B1997F95B98EBD37
:1008D0000DB407FEFDCF299A90E080E050E0841728
:1008E00095071CF02A9A78940895FB01E80FF91FE8
:1008F000E491EEBD0DB407FEFDCF0196F0CFF89464
:1009000095B1997F95B98EBD0DB407FEFDCF85B128
:10091000866085B9789408950F931F93CF93DF93E2
:1009200080EF90E090933A018093390180E491E068
:1009300090933F0180933E011092370110923C0149
:1009400010923B01109235011092340181E08093A6
:100950004201809336012FEF3FEF30934101209306
:100960004001309344012093430180933D01109254
:100970003801229A2A9A219A299A259A239A249808
:100980008CB580658CBD81E00E947F042FEF8FE5E0
:1009900093E0215080409040E1F700C00000C8E69D
:1009A000D0E09E012F5F3F4FFE018491811111C065
:1009B00080EF90E090933A018093390180E491E0D8
:1009C00090933F0180933E01DF91CF911F910F9152
:1009D00008952296F9011491012F0F77402FBE013F
:1009E0000E946304C00FD11D17FFDBCFFFEF2FE57F
:1009F00083E0F15020408040E1F700C00000D1CFFB
:100A0000CF92DF92EF92FF920F931F93CF93DF93DA
:100A10006C017B01415051098A01080F191FE9013E
:100A20002197C60FD71F8AE20E945304C6010E9475
:100A30005A04C8010E945A048BE20E945304C70161
:100A40000E945A04CE010E945A048CE2DF91CF9199
:100A50001F910F91FF90EF90DF90CF900C94530473
:100A60001EBC8EB50895CF93DF9397FD1CC02091D7
:100A7000390130913A0182179307ACF477FD13C026
:100A800020913E0130913F016217730764F4EA013F
:100A900021E030E041E050E00E940005CE01DF910E
:100AA000CF910C945A04DF91CF9108958370809375
:100AB0003701823079F18330D9F18130E9F080EF6C
:100AC00090E090933A018093390180E491E0909313
:100AD0003F0180933E0188E4F8942A98299896E390
:100AE0009EBD0DB407FEFDCF299A8EBD0DB407FE45
:100AF000FDCF2A9A7894089580E491E090933A018A
:100B00008093390180EF90E090933F0180933E0104
:100B100088E2E2CF80EF90E090933A018093390130
:100B200080E491E090933F0180933E0188E8D4CF28
:100B300080E491E090933A018093390180EF90E056
:100B400090933F0180933E0188EEC6CFCF93DF9311
:100B5000EC01F8942A9820913E0130913F01409198
:100B6000390150913A0170E060E090E080E00E942D
:100B7000000580E09CE2A1E0B0E0DEBD0DB407FE20
:100B8000FDCFCEBD0DB407FEFDCF0197A109B10980
:100B9000A1F72A9A7894DF91CF91089578940E94D2
:100BA000A7010E94FC010E9484010E9417020E947A
:100BB0007F020E942B040E948C0483E00E94560551
:100BC00080EE93E00E94A605389A80912C0188233C
:100BD00021F010922C0180912F0180910C0188232B
:100BE00039F010920C0181E00E943C0480930A01CC
:100BF00080910D01811110920D0180911C018823BB
:100C000021F010921C010E9433028091010188237F
:100C100069F0109201011092110140910F0120E042
:100C200070E060E090E080E00E948A018091000125
:100C3000882369F0109200012091110110920F0198
:100C400040E070E060E090E080E00E948A018091E6
:100C50001D01882309F4B9CF10921D0110921B01C8
:100C60004091170160911601809115010E946C025C
:100C700080931101AACF0E944606A59F900DB49FB4
:100C8000900DA49F800D911D11240895A29FB00185
:100C9000B39FC001A39F700D811D1124911DB29FB0
:0E0CA000700D811D1124911D0895F894FFCF51
:0A0CAE0001010103001E000365CDE3
:00000001FF
