:100000000C94EC020C9409030C9409030C9409035E
:100010000C942C030C9409030C9409030C9409030D
:100020000C9409030C9409030C9409030C94A00389
:100030000C9409030C9409030C9409030C94090310
:100040000C9409030C9409030C941D040C940903EB
:100050000C9409030C9409030C9409030C940903F0
:100060000C9409030C940903EF03038002CF0300EF
:10007000C130ED0464031281E803850078CB0539B3
:100080002C003402F70120EA020000C00123C10164
:1000900010C5023E28C701863601483701003A01E3
:1000A00055B1020018B603088227F20100260101AB
:1000B000E00F0F312B0C0E084EF1370710030E091D
:1000C00000E10F000E1403110731C148080F0C3175
:1000D000360F118029800000000000003E5B4F5B5E
:1000E0003E3E6B4F6B3E1C3E7C3E1C183C7E3C18DB
:1000F0001C577D571C1C5E7F5E1C00183C1800FFBF
:10010000E7C3E7FF0018241800FFE7DBE7FF3048EC
:100110003A060E2629792926407F050507407F05E6
:10012000253F5A3CE73C5A7F3E1C1C08081C1C3EDD
:100130007F14227F22145F5F005F5F06097F017FCB
:10014000006689956A606060606094A2FFA294086E
:10015000047E040810207E201008082A1C08081CB1
:100160002A08081E101010100C1E0C1E0C30383EF1
:100170003830060E3E0E06000000000000005F0052
:10018000000007000700147F147F14242A7F2A121E
:100190002313086462364956205000080703000004
:1001A0001C2241000041221C002A1C7F1C2A080836
:1001B0003E08080080703000080808080800006049
:1001C000600020100804023E5149453E00427F4035
:1001D0000072494949462141494D331814127F1094
:1001E00027454545393C4A494931412111090736DE
:1001F00049494936464949291E000014000000407B
:100200003400000008142241141414141400412274
:10021000140802015909063E415D594E7C12111223
:100220007C7F494949363E414141227F4141413E1F
:100230007F494949417F090909013E414151737F85
:100240000808087F00417F41002040413F017F08AE
:100250001422417F404040407F021C027F7F0408FF
:10026000107F3E4141413E7F090909063E4151212F
:100270005E7F09192946264949493203017F010356
:100280003F4040403F1F2040201F3F4038403F63D9
:100290001408146303047804036159494D43007F33
:1002A0004141410204081020004141417F04020104
:1002B00002044040404040000307080020545478A6
:1002C000407F284444383844444428384444287FF4
:1002D000385454541800087E090218A4A49C787F4E
:1002E0000804047800447D40002040403D007F1019
:1002F00028440000417F40007C047804787C080496
:1003000004783844444438FC182424181824241849
:10031000FC7C08040408485454542404043F442436
:100320003C4040207C1C2040201C3C4030403C4451
:10033000281028444C9090907C4464544C4400080D
:10034000364100000077000000413608000201023B
:1003500004023C2623263C1EA1A161123A40402003
:100360007A3854545559215555794122545478427C
:10037000215554784020545579400C1E5272123940
:1003800055555559395454545939555454580000F9
:10039000457C410002457D420001457C407D1211B3
:1003A000127DF0282528F07C545545002054547CBB
:1003B000547C0A097F4932494949323A4444443A13
:1003C000324A4848303A4141217A3A424020780046
:1003D0009DA0A07D3D4242423D3D4040403D3C24E9
:1003E000FF2424487E4943662B2FFC2F2BFF09292D
:1003F000F620C0887E090320545479410000447DD2
:10040000413048484A32384040227A007A0A0A721B
:100410007D0D19317D2629292F28262929292630C5
:10042000484D4020380808080808080808382F10E8
:10043000C8ACBA2F102834FA00007B000008142A38
:10044000142222142A14085500550055AA55AA55FD
:10045000AAFF55FF55FF000000FF00101010FF001D
:10046000141414FF001010FF00FF1010F010F0140F
:100470001414FC001414F700FF0000FF00FF141414
:10048000F404FC141417101F10101F101F14141460
:100490001F00101010F0000000001F101010101F9F
:1004A00010101010F010000000FF101010101010AD
:1004B000101010FF10000000FF140000FF00FF00EC
:1004C000001F10170000FC04F41414171017141464
:1004D000F404F40000FF00F714141414141414F7B7
:1004E00000F7141414171410101F101F141414F410
:1004F000141010F010F000001F101F0000001F1457
:10050000000000FC140000F010F01010FF10FF14A9
:100510001414FF141010101F00000000F010FFFF53
:10052000FFFFFFF0F0F0F0F0FFFFFF000000000021
:10053000FFFF0F0F0F0F0F3844443844FC4A4A4A5C
:10054000347E02020606027E027E02635549416342
:100550003844443C04407E201E2006027E0202995C
:10056000A5E7A5991C2A492A1C4C7201724C304AF5
:100570004D4D303048784830BC625A463D3E49497E
:1005800049007E0101017E2A2A2A2A2A44445F4426
:100590004440514A444040444A51400000FF010356
:1005A000E080FF000008086B6B0836123624360620
:1005B0000F090F060000181800000010100030404E
:1005C000FF0101001F01011E00191D1712003C3C14
:1005D0003C3C00000000000011241FBECFEFD8E01B
:1005E000DEBFCDBF12E0A0E0B1E0E8E0F9E202C07A
:1005F00005900D92A833B107D9F722E0A8E3B2E045
:1006000001C01D92AF3EB207E1F70E940F120C9499
:1006100082140C9400008091BD02813071F488EC4A
:100620008093BC0289E18093BB028091BF0282303B
:1006300059F480E98093AF0208958111F6CF84E6E2
:100640008093BC028AE0EFCF813011F488ECF2CFC6
:100650008111F2CF8BE4EECF1F920F920FB60F9263
:1006600011248F939F9386B18C708093C8028091E0
:10067000C80284708093C6028091C80288708093FB
:10068000C3028091C502811110C08091C6028823E7
:1006900021F081E08093C70226C08091C3028823A5
:1006A00039F182E08093C70210C08091C502813089
:1006B00081F48091C302882311F083E0EBCF809115
:1006C000C602811115C01092C7028091AC02815000
:1006D0000DC08091C502823029F58091C30281113D
:1006E0001BC01092C7028091AC028F5F8093AC0256
:1006F0009091C7028091C502981739F081E08093EC
:10070000B9028091C7028093C5029F918F910F908B
:100710000FBE0F901F9018958091C602882341F359
:1007200083E0C0CF8091C602811102C082E0B2CFC7
:100730008091C3028111DCCF81E08093C502C5CFD7
:100740001F920F920FB60F9211248F938091500237
:100750008F5F80935002809143028F5F80934302AA
:10076000809140028F5F80934002809145028F5FAD
:100770008093450280913C028F5F80933C02809180
:100780003B028F5F80933B0280913C02813021F4D9
:1007900080933E0210923C0280913B02833029F408
:1007A00081E080933D0210923B02809145028230AD
:1007B00029F481E080934602109245028091400224
:1007C000823029F481E080934102109240028091AE
:1007D0005002823029F481E080935202109250023C
:1007E00080914302833029F481E080934202109289
:1007F000430280914702882329F01092470281E04A
:100800008093010180914402882329F010924402D0
:1008100081E08093000180913A02882349F0409A58
:1008200010923A028F910F900FBE0F901F90189563
:10083000409881E080933A02F5CF1F920F920FB655
:100840000F9211248F93EF93FF938091C600E09154
:100850005102F0E0E85BFD4F8083809151028F5F91
:100860008093510280915102883019F481E0809385
:100870005302FF91EF918F910F900FBE0F901F9039
:100880001895579A559A569A209A289808950F9332
:10089000F0E0E0E08E179F0779F06E177F0761F0B8
:1008A000E930F10521F4411107C05F9806C0E83036
:1008B000F10569F42223C9F35F9A5D9A5D98319638
:1008C000E031F10539F75E9A5E980F910895E730AF
:1008D000F10559F7002349F3EFCF87B1837F87B93B
:1008E00088B18C6088B980916800826080936800CC
:1008F00080916C008C6080936C001092C40286B171
:100900008C708093C8028091C80284708093C60264
:100910008091C80288708093C3028091C3028111C4
:100920000DC08091C602811109C01092C50280914C
:10093000C5028093C7028091C70208958091C302C7
:10094000811108C08091C602882321F081E0809344
:10095000C502EDCF8091C302882331F08091C60299
:10096000811102C082E0F3CF83E0F1CF8150833068
:1009700058F4282F30E0F901E45FFE4F9081275FA3
:100980003E4FF9018081089582E091E00895ECE600
:10099000F0E08081806180830895ECE6F0E0808162
:1009A0008F7E80830895E1E8F0E085E08083808198
:1009B00088608083EFE6F0E080818260808380E45D
:1009C00098E3909389008093880008958FE590E0E4
:1009D0009093C5008093C40088E98093C10086E0AD
:1009E0008093C200529A08958091C00087FFFCCF87
:1009F0008091C60008959091C00095FFFCCF809330
:100A0000C6000895EF92FF920F931F93CF93DF9349
:100A1000CDB7DEB728970FB6F894DEBF0FBECDBFB7
:100A200088E0EFE0F1E0DE01119601900D928A95E9
:100A3000E1F75A9AF8948E010F5F1F4F7E0189E00B
:100A4000E80EF11CF80181918F010E94FB040E1544
:100A50001F05C1F78091C00086FFFCCF8091550231
:100A6000882331F08CEC9CE10197F1F700C0000085
:100A700081E0809355025A98789428960FB6F8949E
:100A8000DEBF0FBECDBFDF91CF911F910F91FF90C1
:100A9000EF90089591E0403308F090E021E0603A53
:100AA00008F020E0920F21E0803208F020E0920F61
:100AB00081E0923008F480E0089588E08093BE02DF
:100AC0003B988BB19091BE02892B8BB92FEF8FE7AA
:100AD00096E1215080409040E1F700C00000089569
:100AE0008091C0029091C10208958091B2029091CC
:100AF000B30208952F923F924F925F926F927F922E
:100B00008F929F92AF92BF92CF92DF92EF92FF921D
:100B10000F931F93CF93DF93CDB7DEB7C054D1406F
:100B20000FB6F894DEBF0FBECDBFFE01319680E454
:100B300091E0DF019C011D9221503040E1F71092BD
:100B4000C1021092C0021092B3021092B202F89445
:100B500032E03A95F1F700C053985B9A8FEF9FE32C
:100B6000A2E081509040A040E1F700C00000539AFD
:100B70005B9889E993E00197F1F700C053985B9A7D
:100B800091E39A95F1F70000A4ECAA95F1F700C063
:100B90004B99CAC0109256021092570210925802F6
:100BA0001092590210925A0210925B0210925C024B
:100BB00010925D027E0121E0E20EF21E8F013BE702
:100BC0003A95F1F74B99B4C080915602D8018C93B5
:100BD0008091570211968C9311978091580212962A
:100BE0008C9312978091590213968C93139780914E
:100BF0005A0214968C93149780915B0215968C93ED
:100C0000159780915C0216968C93169780915D02E1
:100C100017968C93085F1F4F10925602109257023E
:100C2000109258021092590210925A0210925B02CE
:100C300010925C0210925D020E151F0509F0BFCFE5
:100C40004B9B9EC07894E090C002F090C102C0908F
:100C5000B202D090B30287E0A82EB12C5080618000
:100C600072808380948005811681B7813896252D06
:100C7000362D472D582D692D702F812F9B2FA2E0E7
:100C80000E94411409F008F480C0ADEF0E943514B1
:100C9000A6E00E94411409F0E8F521E030E040E0D0
:100CA00050E060E070E080E090E00A2D0E941C14AB
:100CB0001901E22AF328DF01A858BF4F5C90119672
:100CC0006C90119712967C90129713968C901397B4
:100CD00014969C90149715960C91159716961C9146
:100CE00016971796BC91252D362D472D582D692D19
:100CF000702F812F9B2FA2E00E94411409F008F46D
:100D000046C0ADEF0E943514A6E00E94411409F0E0
:100D100008F47AC0D092B302C092B202F092C1023B
:100D2000E092C00220E04FC0B2E0BA95F1F72FCFB9
:100D300082E08A95F1F700C0209156023091570267
:100D4000409158025091590260915A0270915B0291
:100D500080915C0290915D02A1E00E943514209385
:100D600056023093570240935802509359026093B1
:100D70005A0270935B0280935C0290935D0222CFD3
:100D8000B2E0BA95F1F700C05BCF20E087CF20E05A
:100D900030E040E050E060E070E080E090E00A2D5C
:100DA0000E941C141901C22AD32821E0A21AB108FA
:100DB00008F054CFD092B302C092B202F092C102B6
:100DC000E092C00221E030E040E050E060E070E0FE
:100DD00080E090E0C05CDE4F0FB6F894DEBF0FBE3F
:100DE000CDBFDF91CF911F910F91FF90EF90DF90DA
:100DF000CF90BF90AF909F908F907F906F905F90BB
:100E00004F903F902F90089521E0C2CFECE7F0E0A3
:100E100080818066808380818F778083EAE7F0E03D
:100E2000808187608083808180688083089590912D
:100E30007C00907F90937C0090917C008F70892B38
:100E400080937C0080917A00806480937A00809106
:100E50007A0086FDFCCF8091790008950F931F934F
:100E6000A82F4115510509F468C084EA8093BC009D
:100E70008091BC0087FFFCCF8091B900887F8830CB
:100E800031F58A2F8E7F8093BB0084E88093BC006D
:100E90008091BC0087FFFCCF8091B900887F8831AA
:100EA000C9F08032A1F494E99093BC0010C0819104
:100EB0008093BB006093BC008091BC0087FFFCCF97
:100EC0008091B900887F883249F0803361F31F91A7
:100ED0000F910895FB01460F571F64E84E175F07F7
:100EE00031F740E10115110569F514C0F90194ECE1
:100EF0000130110589F484E88093BC008091BC0026
:100F000087FFFCCF8091B900887F883501F78091F9
:100F1000BB00808380E0C7CF9093BC008091BC0071
:100F200087FFFCCF8091B900887F0150110980357F
:100F300071F68091BB008193DBCF80E00115110534
:100F400031F248E084EA8093BC008091BC0087FFC6
:100F5000FCCF8091B900887F4813B9CFA160A093DE
:100F6000BB0084E88093BC008091BC0087FFFCCF6D
:100F70008091B900887F803409F4B8CF883409F0B3
:100F8000A6CF91CF1092B9008093B80008950F9327
:100F90001F93E0EBF2E080EA808383E9818310E035
:100FA00000E030E020E042E050E0BF0182E50E9436
:100FB0002E071F910F9108950F931F93E0EBF2E01E
:100FC00080EA8083118210E000E030E020E042E01F
:100FD00050E0BF0182E50E942E071F910F910895F6
:100FE0000F931F93CF9382EB8093B00201E010E048
:100FF00020EB32E041E050E0B90182E50E942E078B
:10100000C82F8093B702811119C08091B00280353A
:10101000D1F40E94C70781EA8093B00280E18093F7
:10102000B10210E000E030E020E042E050E060EB90
:1010300072E082E50E942E070E94DC078C2FCF9180
:101040001F910F910895C82FF9CF0F931F93CF933E
:10105000DF9300D000D000D0CDB7DEB784EB8E8315
:1010600086EB8D830E94C70722E383EB92E0215039
:1010700080409040E1F700C000C002E010E09E0117
:101080002D5F3F4F41E050E0BE016A5F7F4F82E538
:101090000E942E079E012F5F3F4F41E050E0BE01AE
:1010A0006B5F7F4F82E50E942E070E94DC072B8139
:1010B0003C81E981FA812F3F320721F1EF3FFE07A2
:1010C00009F1CF01B9010E94081441E050E0461B2C
:1010D000570B2E1B3F0B429FC001439F900D529F09
:1010E000900D112466E070E00E940814CB01269652
:1010F0000FB6F894DEBF0FBECDBFDF91CF911F9129
:101100000F9108958FEF9FEFF2CF0F931F9361E040
:1011100070E09B0102C0220F331F8A95E2F76091B5
:10112000BA02622B6093BA0270E010E000E030E097
:1011300020E041E050E080EE0E942E071F910F91C9
:1011400008950F931F9361E070E09B0102C0220F8E
:10115000331F8A95E2F76091BA0262276093BA0260
:1011600070E010E000E030E020E041E050E080EE90
:101170000E942E071F910F9108950F931F931092B5
:10118000BA0210E000E030E020E041E050E070E022
:1011900060E080EE0E942E071F910F91089581E07C
:1011A0000E94850884E00E9485080C94BD08FF9287
:1011B0000F931F93CF93DF9300D0CDB7DEB7F82EF8
:1011C000898388E78A8301E010E09E012F5F3F4F0B
:1011D00042E050E0B90180EE0E942E0781110DC05F
:1011E0008F2D0E94A108898190E00F900F90DF91D0
:1011F000CF911F910F91FF9008958FEF9FEFF5CF43
:1012000029988EBD0DB407FEFDCF299A08959EBD85
:101210000DB407FEFDCF8EBD0DB407FEFDCF0895C2
:10122000F89495B1997F95B98EBD0DB407FEFDCFA9
:10123000299AFB018E2F861B841718F02A9A78941E
:10124000089584918EBD0DB407FEFDCF3196F2CF87
:10125000F89495B1997F95B98EBD0DB407FEFDCF79
:1012600085B1866085B9789408950F931F93CF93C5
:10127000DF9380EF90E09093CA028093C90280E4EC
:1012800091E09093CC028093CB021092670210926F
:101290006B0210926A02109269021092680281E059
:1012A00080930301809304012FEF3FEF30930601F9
:1012B00020930501309308012093070180930201D8
:1012C00010926602229A2A9A219A299A259A239A9A
:1012D00024988CB580658CBD81E00E9428092FEF91
:1012E0008FE593E0215080409040E1F700C000007E
:1012F000C8E6D0E09E012F5F3F4FFE01849181112F
:1013000011C080EF90E09093CA028093C90280E4FC
:1013100091E09093CC028093CB02DF91CF911F910B
:101320000F9108952296F9011491012F0F77402F04
:10133000BE010E941009C00FD11D17FFDBCFFFEFC8
:101340002FE583E0F15020408040E1F700C000002D
:10135000D1CFCF92DF92EF92FF920F931F93CF9353
:10136000DF936C017B01415051098A01080F191F5D
:10137000E9012197C60FD71F8AE20E940009C60122
:101380000E940709C8010E9407098BE20E94000918
:10139000C7010E940709CE010E9407098CE2DF9174
:1013A000CF911F910F91FF90EF90DF90CF900C9411
:1013B00000091EBC8EB50895CF92DF92FF920F9365
:1013C0001F93CF93DF938130B9F168F18230E9F157
:1013D000833009F443C000EE13E022E330E04CE236
:1013E00051E06EEB70E085E090E00E94E70D82E056
:1013F0000E94FB1068EC70E082E390E00E942011F4
:10140000C6010E94031161EE70E08F2D90E00E94F2
:101410002011CE01DF91CF911F910F91FF90DF90AE
:10142000CF900C9403116BE4F62EC6E4D1E073E583
:10143000C72E71E0D72ECFCF44E6F42EC4E6D1E01C
:101440005FE6C52E51E0D52EC6CF22E3F22EC0E8CE
:10145000D1E031E9C32E31E0D32EBDCF88E2F82EA2
:10146000C3EAD1E097EBC92E91E0D92EB4CFCF9348
:10147000C82F83E00E94FB1065E070E082E390E0FB
:101480000E94201188EC91E00E94031163E270E059
:1014900086E490E00E94201182E00E94FB1085ED1E
:1014A00091E00E9403116CE370E080E590E00E94FF
:1014B000201182E00E94FB1082EE91E00E94031155
:1014C0006CE370E080EF90E00E9420118DEE91E0DF
:1014D0000E94031165E570E082E390E00E94201114
:1014E0008FEE91E00E9403116EE670E082E390E0DF
:1014F0000E9420118FEF91E00E9403116EE670E0D0
:101500008DE790E00E94201183E092E00E94031199
:101510006EE670E088EC90E00E94201187E092E097
:101520000E94031167E870E08AE090E00E942011B9
:101530008BE092E00E94031167E870E084E690E09F
:101540000E9420118DEE91E00E94031167E870E087
:1015500082E890E00E94201181E192E00E94031154
:1015600067E870E08DE191E00E9420118DEE91E03E
:101570000E94031183E00E94FB1065EA70E08EE197
:1015800090E00E9420118DE192E00E9403118C2FC7
:10159000CF910C94DC09EF92FF920F931F93CF939E
:1015A000DF93CDB7DEB760970FB6F894DEBF0FBEFE
:1015B000CDBF7C0182E00E94FB1063E270E082ED0F
:1015C00090E00E94201100EE13E029E130E044E6B3
:1015D00050E063E270E082ED90E00E94E70D8CE263
:1015E00092E0E114F10449F04AE0BE016F5F7F4FE1
:1015F000C7010E944D14CE0101960E94031160960E
:101600000FB6F894DEBF0FBECDBFDF91CF911F9113
:101610000F91FF90EF900895EF92FF920F931F9319
:10162000CF93DF93CDB7DEB760970FB6F894DEBFE8
:101630000FBECDBF7C0100EE13E029E130E043E2B4
:1016400050E06CE370E088EC90E00E94E70D4AE027
:10165000BE016F5F7F4FC7010E944D1482E00E9460
:10166000FB106CE370E088EC90E00E942011CE014A
:1016700001960E94031160960FB6F894DEBF0FBE6C
:10168000CDBFDF91CF911F910F91FF90EF90089503
:10169000FF920F931F93CF93DF93CDB7DEB7609781
:1016A0000FB6F894DEBF0FBECDBFF82E00EE13E0EC
:1016B00029E130E042E350E065E570E081EE90E042
:1016C0000E94E70D82E00E94FB104AE0BE016F5FBE
:1016D0007F4F8F2D90E00E944D1465E570E081EE04
:1016E00090E00E942011CE0101960E9403116096A5
:1016F0000FB6F894DEBF0FBECDBFDF91CF911F9123
:101700000F91FF900895DF92EF92FF920F931F9336
:10171000CF93DF93CDB7DEB760970FB6F894DEBFF7
:101720000FBECDBFD82EE62EF42E82E00E94FB1015
:1017300000EE13E029E130E042E350E06EE670E0B5
:101740008BE490E00E94E70D29E130E042E350E0B5
:101750006EE670E086E990E00E94E70D29E130E056
:1017600042E350E06EE670E081EE90E00E94E70D0B
:101770004AE0BE016F5F7F4F8D2D90E00E944D14B7
:101780006EE670E08BE490E00E942011CE0101969D
:101790000E9403114AE0BE016F5F7F4F8E2D90E0E3
:1017A0000E944D146EE670E086E990E00E942011E0
:1017B000CE0101960E9403114AE0BE016F5F7F4F88
:1017C0008F2D90E00E944D146EE670E081EE90E067
:1017D0000E942011CE0101960E94031160960FB65F
:1017E000F894DEBF0FBECDBFDF91CF911F910F9157
:1017F000FF90EF90DF900895EF92FF920F931F9369
:10180000CF93DF93CDB7DEB760970FB6F894DEBF06
:101810000FBECDBFF82EE62E82E00E94FB10F11025
:101820001EC000EE13E029E130E043E250E067E83B
:1018300070E08AEF90E00E94E70D4AE0BE016F5F22
:101840007F4F8E2D90E00E944D1467E870E08AEF84
:1018500090E00E942011CE0101960E940311E11038
:101860001EC000EE13E029E130E043E250E067E8FB
:1018700070E08CE390E00E94E70D4AE0BE016F5FEC
:101880007F4F8F2D90E00E944D1467E870E08CE34D
:1018900090E00E942011CE0101960E9403116096F3
:1018A0000FB6F894DEBF0FBECDBFDF91CF911F9171
:1018B0000F91FF90EF900895F8942A9808952A9A2E
:1018C000789408959EBD0DB407FEFDCF8EBD0DB476
:1018D00007FEFDCF0895CF93DF9397FD1CC02091A5
:1018E000C9023091CA0282179307ACF477FD13C086
:1018F0002091CB023091CC026217730764F4EA01A5
:1019000021E030E041E050E00E94A909CE01DF91E2
:10191000CF910C94620CDF91CF910895CF93837097
:1019200080936702823079F18330D9F18130E9F018
:1019300080EF90E09093CA028093C90280E491E026
:101940009093CC028093CB02C8E40E945C0C29984F
:1019500086E38EBD0DB407FEFDCF299ACEBD0DB432
:1019600007FEFDCFCF910C945F0C80E491E0909343
:10197000CA028093C90280EF90E09093CC028093DA
:10198000CB02C8E2E2CF80EF90E09093CA0280934E
:10199000C90280E491E09093CC028093CB02C8E826
:1019A000D4CF80E491E09093CA028093C90280EF83
:1019B00090E09093CC028093CB02C8EEC6CFCF923A
:1019C000DF92EF92FF92CF93DF93EC010E945C0CC9
:1019D0002091CB023091CC024091C9025091CA02B1
:1019E00070E060E090E080E00E94A909C12C8CE2E8
:1019F000D82EEE24E394F12CCE010E94620C81E0FB
:101A0000C81AD108E108F108B9F7DF91CF91FF902A
:101A1000EF90DF90CF900C945F0C2F923F924F92FB
:101A20005F926F927F928F929F92AF92BF92CF926E
:101A3000DF92EF92FF920F931F93CF93DF936C018E
:101A40003B015A01790128010E945C0C912C812CE8
:101A500010E000E01301200E311E0415150560F1A1
:101A6000DF91CF911F910F91FF90EF90DF90CF907A
:101A7000BF90AF909F908F907F906F905F904F90AE
:101A80003F902F900C945F0CFE01E80DF91DEE0FB6
:101A9000FF1FEA0DFB1D45915491B101C6018C0F4A
:101AA0009D1F0E946B0C2196CE15DF0568F30F5F1A
:101AB0001F4F8E0C9F1CCECFD0E0C0E0F5CFAF9271
:101AC000BF92CF92DF92EF92FF920F931F93CF932B
:101AD000DF93EA0179015801209709F45EC0232BB6
:101AE00009F45BC057FF08C09A012F5F3F4F820F78
:101AF000931FD195C195D1094091C9025091CA0255
:101B0000841795070CF049C0F7FE08C097012F5FB6
:101B10003F4F620F731FF194E194F1082091CB02C3
:101B20003091CC0262177307C4F56C01CC0EDD1E38
:101B3000D6011197B7FD31C08B010E0D1F1DF801A5
:101B40003197F7FD2AC097FF03C0E60190E080E0DF
:101B500077FF03C0780170E060E0A417B5071CF0C0
:101B6000EA01C81BD90BE217F3071CF07901E61A4A
:101B7000F70A9701AE010E94A909EC9E6001ED9E53
:101B8000D00CFC9ED00C11240D2C000CEE08FF088C
:101B9000C114D104E104F10471F4DF91CF911F91DC
:101BA0000F91FF90EF90DF90CF90BF90AF9008958E
:101BB000C5010E94620C81E0C81AD108E108F10851
:101BC0008FEFC816D806E806F80691F7E6CFAF9271
:101BD000BF92CF92DF92EF92FF920F931F93CF931A
:101BE000DF93EC017B016A0159010E945C0C9501B5
:101BF000A601B701CE010E945F0DDF91CF911F9129
:101C00000F91FF90EF90DF90CF90BF90AF900C942A
:101C10005F0CEF92FF920F931F93CF93DF93EA0134
:101C2000790197FD37C02091C9023091CA0282170D
:101C3000930784F5209771F157FF08C09A012F5F31
:101C40003F4F620F731FD195C195D1092091CB02EF
:101C50003091CC0262177307ECF48B010C0F1D1F3F
:101C6000A8014150510957FD15C077FF1EC070E013
:101C700060E0421753071CF08901061B170B9801FF
:101C800041E050E00E94A9090115110519F0015029
:101C9000110938F4DF91CF911F910F91FF90EF90D0
:101CA0000895C7010E94620CF2CF4217530724F730
:101CB0009E0141E050E00E94A9098E01E8CFEF9219
:101CC000FF920F931F93CF93DF93EA01790177FD82
:101CD00037C02091CB023091CC026217730784F594
:101CE000209771F157FF08C09A012F5F3F4F820F75
:101CF000931FD195C195D1092091C9023091CA0293
:101D000082179307ECF48C010C0F1D1FA8014150A2
:101D1000510957FD15C097FF1EC090E080E04217A3
:101D200053071CF08901081B190B21E030E0A801C2
:101D30000E94A9090115110519F00150110938F483
:101D4000DF91CF911F910F91FF90EF900895C70100
:101D50000E94620CF2CF4217530724F721E030E0D3
:101D6000AE010E94A9098E01E8CF2F923F924F92B7
:101D70005F926F927F928F929F92AF92BF92CF921B
:101D8000DF92EF92FF920F931F93CF93DF9300D0D8
:101D900000D0CDB7DEB77C016B015C834B8359016A
:101DA00038018417950759F52617370724F48D2D28
:101DB0006901A62EB82E0E945C0CA5014C195D0984
:101DC0004F5F5F4F9301B601C7010E94090E0F904C
:101DD0000F900F900F90DF91CF911F910F91FF9077
:101DE000EF90DF90CF90BF90AF909F908F907F90BB
:101DF0006F905F904F903F902F900C945F0C621704
:101E00007307C9F48B819C818E159F0534F49E2D38
:101E10008F2DEB80FC809B838C830E945C0C4B811C
:101E20005C814E195F094F5F5F4F9301B601C70197
:101E30000E945F0ECCCF0E945C0C45018C189D085F
:101E400097FE03C09194819491080B811C810E1917
:101E50001F0917FF03C011950195110908151905F0
:101E60005CF49B818C81BC82AB82A92EB82E9E2D06
:101E70008F2D7601C92ED82E8B819C818E159F05C2
:101E80005CF49C2D8D2D6501A92EB82E9E2D8F2DD5
:101E9000EB80FC809B838C838B819C818E199F09B6
:101EA0009A83898315012C183D0837FE03C03194AD
:101EB0002194310849805A8057FE03C09FEF491A88
:101EC000590A55944794CA14DB040CF1AA24AA9425
:101ED000BA2C8B819C818E159F050CF478CFA301C1
:101EE000B701C6010815190514F0B601C7010E9413
:101EF0006B0C4218530857FE06C0CA0CDB1C8981C4
:101F00009A81480E591E9FEFE91AF90AE2CFAA24D6
:101F1000A394B12CDECF2F923F924F925F926F929B
:101F20007F928F929F92AF92BF92CF92DF92EF9269
:101F3000FF920F931F93CF93DF93CDB7DEB72E970A
:101F40000FB6F894DEBF0FBECDBF5C016B01F42E5F
:101F500019014801E9828091C9029091CA02A8162C
:101F6000B9060CF0C1C08091CB029091CC026817E9
:101F700079070CF0B9C02E2D30E03E872D87C501C2
:101F8000E6E0EE9E800D911D11249E838D83181630
:101F900019060CF0A9C083E0220F331F8A95E1F7E0
:101FA00038872F83C901860F971F181619060CF062
:101FB0009BC080916602811104C02FEA241708F4A7
:101FC000F3940E945C0CC50105969A878987BB82B1
:101FD000AA82350187ED90E08A199B09FC0125E072
:101FE000F29EE00DF11D1124FC87EB87EB85FC854B
:101FF000E60DF71D34913C837601512C412C4C8128
:1020000040FF52C08981A1018101813009F056C091
:10201000B601640D751DC3010E946B0CEC81E69541
:10202000EC83FFEF4F1A5F0A2D853E85E20EF31E0B
:1020300038E04316510419F74FEF641A740A8A8185
:102040009B81ED85FE858E0F9F1F9B838A8329854B
:102050003A856216730651F68214930459F0398159
:102060003130A9F5940148E050E0B601C50105966C
:102070000E94090E2E960FB6F894DEBF0FBECDBF9C
:10208000DF91CF911F910F91FF90EF90DF90CF9054
:10209000BF90AF909F908F907F906F905F904F9088
:1020A0003F902F900C945F0C8214930409F4B6CFE8
:1020B00099818401913011F4A401AACF2D853E8528
:1020C000A901B7018A819B810E945F0DA7CF84017E
:1020D0002F8138854D855E85B6018D819E81841B5B
:1020E000950B0E945F0DC6CF2E960FB6F894DEBFFB
:1020F0000FBECDBFDF91CF911F910F91FF90EF9059
:10210000DF90CF90BF90AF909F908F907F906F9017
:102110005F904F903F902F900895EF920F931F93F1
:102120008A30D1F410926B0210926A0280910301FE
:1021300098E0899F90011124809168029091690232
:10214000820F931F909369028093680281E090E070
:102150001F910F91EF9008958D30C1F3E09004012D
:1021600090910201992321F120916A0230916B0232
:1021700096E0E99E200D311D11244091C902509135
:10218000CA0242175307A4F44091680250916902B1
:1021900010926B0210926A022091030198E0299F2D
:1021A00090011124240F351F309369022093680297
:1021B000482F0091050110910601209107013091EF
:1021C0000801609168027091690280916A029091A1
:1021D0006B020E948B0F2091040180916A02909102
:1021E0006B0236E0239F800D911D112490936B02AA
:1021F00080936A02ABCF811101C081E0809304011A
:102200008093030108951F93CF93DF93EC0110E0B7
:10221000812F90E0FE0101900020E9F73197EC1B3F
:10222000FD0B8E179F0720F0DF91CF911F9108952E
:102230008C0F9D1FFC0180810E948D101F5FE8CFD5
:1022400090936B0280936A027093690260936802B4
:10225000089590930601809305019093080180935F
:102260000701089590930801809307017093060178
:102270006093050108958093020108950F931F93C1
:1022800054989091680094609093680090916D00CC
:10229000906190936D0090E890936C0280936D0232
:1022A00010E000E030E020E042E050E06CE672E058
:1022B00088E30E942E07882311F080E019C087E090
:1022C0008A95F1F700C088EA80936C0201E010E083
:1022D0002CE832E041E050E06CE672E088E30E94D6
:1022E0002E078111EACF81E090918C02913129F77C
:1022F0001F910F9108950F931F9382E080936C02BA
:1023000001E010E02CE832E041E050E06CE672E0E1
:1023100088E30E942E0787E08A95F1F700C081E0EC
:1023200090918C02913009F080E01F910F910895F7
:10233000CF92DF92EF92FF920F931F938093EE0262
:1023400010E000E030E020E041E050E06EEE72E0AE
:1023500080EE0E942E070CE010E022EE32E050E00A
:1023600040E070E060E080EF0E942E0708E010E09F
:102370002AED32E050E040E070E060E08EEE0E9436
:102380002E07EAEDF2E090E080E040E050E0BA0194
:10239000A1E0B0E02191253678F08D01082E02C031
:1023A000000F111F0A94E2F7012E000C220B330BD1
:1023B000402B512B622B732B01968830910551F7DE
:1023C000E2EEF2E001E010E020E030E0A191A5367D
:1023D00070F068017901082E04C0CC0CDD1CEE1CE5
:1023E000FF1C0A94D2F74C295D296E297F2901969A
:1023F0008431910559F780E040FD0BC0982F990F6B
:10240000990F890F1F910F91FF90EF90DF90CF9060
:1024100008958F5F7695679557954795EDCF389AD4
:1024200078948DE10E94C2070E946D040E94D3043B
:102430000E9441040E94E6040E945D050E94060776
:102440000E94350983E00E948E0C80EE93E00E948A
:10245000DF0C209147024091440200E06CE070E004
:102460008FE090E00E9447046BE470E089E190E027
:102470000E94201180E29DEF0E94291183E00E94BA
:10248000FB1087E191E00E9403116DE770E08BE49F
:1024900090E00E94201187E291E00E9403112FEF4B
:1024A0008FEF9CE2215080409040E1F700C0000097
:1024B00080EE93E00E94DF0C0E94F007811114C0AF
:1024C00062E370E087E390E00E94201181E391E0F5
:1024D0000E94031164E670E08AE590E00E942011FA
:1024E0008DE391E00E9403112FEF8FEF9CE22150CA
:1024F00080409040E1F700C0000080EE93E00E9431
:10250000DF0C809154020E94370ACC24CA94DC2C40
:10251000EE24EA94FE2CCFE0D0E010E080913D0262
:102520008823E9F010923D0284E00E949811C82EA1
:10253000D12C60E08E2D0E94FC0BC6014997499773
:1025400008F019C12091470240914402012F6CE02C
:1025500070E08EE090E00E944704CEE0D0E08091F1
:102560003E028823E9F010923E0281E00E94981119
:10257000E82EF12C6C2D80E00E94FC0BC7014997DE
:102580002091470240914402012F6CE070E049978E
:1025900008F011C18BE090E00E944704CBE0D0E04E
:1025A00080914602882301F1109246020E9425087C
:1025B0009093B6028093B5020E94CB0A2091AF029D
:1025C0008091B5029091B6022817190609F008F417
:1025D00004C1209147024091440201E06CE070E0A8
:1025E000CE010E94470411E08091B902882381F155
:1025F0008091AC022091B402082E000C990B97FF39
:1026000003C09195819591092817190609F064F482
:102610008091AC0287FFF3C0809154028111E9C020
:10262000809154021092AC021092B902809154022F
:102630000E94B6048093AD029093AE029093BD02C7
:102640008093BF020E940B03809154020E94DC0918
:1026500080914102882309F43FC08091420288237F
:10266000D9F1109241021092420281E00E941707B4
:1026700080933F0280913F020E94480B0E947A059E
:10268000A0E00E94411461F092E09A95F1F700C039
:102690000E94700590933902809338020E940C0BBF
:1026A00090913F028091BC029817B0F42091BB0238
:1026B00080913802909139022817190669F060F06C
:1026C0002091470281E080934402012F41E06CE0B9
:1026D00070E0CE010E94470480915202882321F0CD
:1026E000109252020E94020580910101882369F034
:1026F000109201011092470240914402012F20E004
:102700006CE070E0CE010E944704809100018823B4
:1027100069F0109200012091470210924402012FAB
:1027200040E06CE070E0CE010E94470480915302CB
:10273000882309F4F3CE1092530210925102409173
:102740004D0260914C0280914B020E94830B40919C
:102750004D0260914C0280914B020E944A05809389
:10276000470240914402012F282F6CE070E0CE0117
:102770000E944704D3CE29E1C216D10474F42091FB
:10278000470240914402012F6CE070E08DE090E040
:102790000E944704CDE0D0E0E2CE20914702409174
:1027A0004402012F6CE070E08FE090E00E9447044B
:1027B000CFE0D0E0D4CE89E1E816F1043CF48AE021
:1027C00090E00E944704CAE0D0E0EACE8CE090E0BE
:1027D0000E944704CCE0D0E0E3CE20914702409134
:1027E000440200E06CE070E0CE010E94470410E07B
:1027F000FBCE8091540281508093540213CF80917C
:102800005402833008F00CCF809154028F5FF4CFD4
:10281000AA1BBB1B51E107C0AA1FBB1FA617B70706
:1028200010F0A61BB70B881F991F5A95A9F7809522
:102830009095BC01CD010895002E083090F0982F9E
:10284000872F762F652F542F432F322F22270850A2
:10285000F4CF220F331F441F551F661F771F881F99
:10286000991F0A95B2F7002D08950024A7FD009442
:102870002A0F301D401D501D601D701D801D901DB4
:1028800008950024A7FD00942A173005400550053F
:1028900060057005800590050895BB274A3031F426
:1028A000992322F4BDE2909581959F4F0C94591481
:1028B000BB27FB015527AA27880F991FAA1FA4171A
:1028C00010F0A41B83955051B9F7A05DAA3308F00E
:1028D000A95DA193009779F7B111B1931192CB0142
:1028E0000C947214DC01FC01672F71917723E1F7DE
:1028F000329704C07C916D9370836291AE17BF07CD
:08290000C8F30895F894FFCF1D
:102908000101010101FFFFFFFF02000100010001B9
:1029180003001E000365CD536D6172742047617218
:1029280064656E696E6700417373697374616E7470
:1029380000416C6C2073656E736F727300656E6115
:10294800626C65642E0048756D69642C2073756E21
:102958006E790054726F706963616C20436C696DA5
:10296800617465004472792C2073756E6E7900204D
:102978002044657365727420436C696D61746500E9
:1029880048756D69642C206C6F77206C6967687472
:102998000054656D70657261746520436C696D6182
:1029A8007465004472792C206D6F6465726174657A
:1029B800206C69676874002020416C70696E65201E
:1029C800436C696D617465005347412052656164C9
:1029D800696E6773004C756D696E6F736974793AC7
:1029E800200048756D69646974793A2000250053A0
:1029F8006F696C206D6F6973747572653A20004E4B
:102A08003A2000503A20004B3A20004832303A2011
:102A1800004E75747269656E74733A2000506C616B
:102A28006E742053657474696E677300736174758E
:082A380072617465642E000058
:00000001FF
